:04000000803118280B
:100008007E14803120007F08FB000B1F132821007D
:10001800921C13282000921C132885319A257B08EE
:100028002000FF007E10090080311A286530840006
:1000380085308500423086000030870016308531D3
:10004800CE258031F001F101F201F301F401F5014F
:10005800203084000030850022308531D4257E1080
:1000680020008431982C003400340A3400342834B9
:100078000034593400349F340034F7340034633486
:100088000134E33401347434023419340334CF3482
:100098000334963404346F340534583406345234F7
:1000A80007345A3408347134093496340A34C9345C
:1000B8000B3408340D3453340E34A9340F34093456
:1000C800113472341234E43413345D341534DD34AD
:1000D800163463341834ED3419347B341B340C343F
:1000E8001D349F341E3432342034C63421345834FD
:1000F8002334E934243476342634FF3427348334E3
:10010800293402342B3479342C34E9342D345034E6
:100118002F34AE34303401343234493433348534F6
:100128003434B4343534D6343634E9343734EE34F0
:100138003834E3343934C9343A349D343B34603488
:100148003C3412343D34B2343D343F343E34B93457
:100158003E3421343F3475343F34B5343F34E234CF
:100168003F34FA343F34FF343F34F0343F34CE3434
:100178003F3497343F344D343F34EF343E347F348A
:100188003E34FB343D3464343D34BC343C340134B7
:100198003C3435343B3458343A346B3439346E3467
:1001A800383462343734473436341E343534E8341E
:1001B8003334A634323459343134003430349E3434
:1001C8002E3432342D34BE342B3443342A34C234E2
:1001D80028343B342734B0342534213424348F3444
:1001E8002234FC34203469341F34D5341D3443346C
:1001F8001C34B4341A34273419349F3417341D345A
:100208001634A03414342A341334BD341134583419
:100218001034FD340E34AC340D3467340C342E34C1
:100228000B3402340A34E4340834D4340734D33475
:100238000634E2340534013405343034043471347E
:100248000334C434023429340234A13401342B3445
:100258000134C93400347A3400343E34003416345E
:10026800003400340034003400340A3400342834B4
:100278000034593400349F340034F7340034633484
:100288000134E33401347434023419340334CF3480
:100298000334963404346F340534583406345234F5
:1002A80007345A3408347134093496340A34C9345A
:1002B8000B3408340D3453340E34A9340F34093454
:1002C800113472341234E43413345D341534DD34AB
:1002D800163463341834ED3419347B341B340C343D
:1002E8001D349F341E3432342034C63421345834FB
:1002F8002334E934243476342634FF3427348334E1
:10030800293402342B3479342C34E9342D345034E4
:100318002F34AE34303401343234493433348534F4
:100328003434B4343534D6343634E9343734EE34EE
:100338003834E3343934C9343A349D343B34603486
:100348003C3412343D34B2343D343F343E34B93455
:100358003E3421343F3475343F34B5343F34E234CD
:100368003F34FA343F34FF343F34F0343F34CE3432
:100378003F3497343F344D343F34EF343E347F3488
:100388003E34FB343D3464343D34BC343C340134B5
:100398003C3435343B3458343A346B3439346E3465
:1003A800383462343734473436341E343534E8341C
:1003B8003334A634323459343134003430349E3432
:1003C8002E3432342D34BE342B3443342A34C234E0
:1003D80028343B342734B0342534213424348F3442
:1003E8002234FC34203469341F34D5341D3443346A
:1003F8001C34B4341A34273419349F3417341D3458
:100408001634A03414342A341334BD341134583417
:100418001034FD340E34AC340D3467340C342E34BF
:100428000B3402340A34E4340834D4340734D33473
:100438000634E2340534013405343034043471347C
:100448000334C434023429340234A13401342B3443
:100458000134C93400347A3400343E34003416345C
:1004680000340034003400340234033405340634D4
:10047800083409340A340C340D340E341034113471
:100488001234133414341534163417341834193418
:100498001A341B341C341D341E341F3420342134C8
:1004A8002134223423342434243425342634263485
:1004B800273428342834293429342A342A342B344C
:1004C8002C342C342D342D342D342E342E342F341A
:1004D8002F343034303430343134313432343234EF
:1004E80032343334333433343434343434343534C8
:1004F80035343534353436343634363436343734A6
:100508003734373437343834383438343834383486
:100518003934393439343934393439343A343A3469
:100528003A343A343A343A343B343B343B343B344F
:100538003B343B343B343B343C343C343C343C3437
:100548003C343C343C343C343C343C343D343D3421
:100558003D343D343D343D343D343D343D343D340B
:100568003D343D343D343D343E343E343E343E34F7
:100578003E343E343E343E343E343E343E343E34E3
:100588003E343E343E343E343E343E343E343E34D3
:100598003F343F343F343F343F343F343F343F34BB
:1005A8003F343F343F343F343F343F343F343F34AB
:1005B8003F343F343F343F343F343F343F343F349B
:1005C8003F343F343F343F343F343F343F343F348B
:1005D8003F343F343F343F343F343F343F343F347B
:1005E8003F343F343F344034403440344034403466
:1005F8004034403440344034403440344034403453
:100608004034403440344034403440344034403442
:100618004034403440344034403440344034403432
:100628004034403440344034403440344034403422
:100638004034403440344034403440344034403412
:100648004034403440344034403440344034403402
:1006580040344034403440344034403440344034F2
:10066800403440344034FF30F6007608F30773080E
:10067800031D4A2B740A03194A2B0130F600760829
:10068800F40720002A08F6007608F3002000400846
:10069800F6007608BE073F08F600F7017608B407AB
:1006A8007708B53D3508F6007608FA003E087A075F
:1006B800F6007608F2007408373E8400823003188A
:1006C800013E85000008F6007608FA0072087A07ED
:1006D800F6007608F5007508F600F701F635F70D0F
:1006E8003730760784008030773D8500003FB600BC
:1006F800013FB7007208F600F701F635F70D3730FD
:10070800760784008030773D8500003FF800013F80
:10071800F90036087807A4003708793DA500A60136
:10072800A7010830A736A60CA50CA40C890B962B9C
:10073800FF30F6007608BB073B08031DAE2B710A95
:100748000319AE2B0130F6007608F1072A08F600E7
:100758007608BB003A08F6007608B8073908F600AC
:10076800F7017608B0077708B13D3108F60076083A
:10077800FA0038087A07F6007608F0007108373E64
:10078800840082300318013E85000008F6007608D0
:10079800FA0070087A07F6007608BD003D08F600F2
:1007A800F701F635F70D3730760784008030773D4E
:1007B8008500003FB200013FB3007008F600F70162
:1007C800F635F70D3730760784008030773D8500A1
:1007D800003FF800013FF90032087807A00033080D
:1007E800793DA100A201A3010830A336A20CA10CF7
:1007F800A00C890BF92B240820072C00980008006E
:10080800FA34183438345A347E34A434CC34F634B8
:10081800233453348634BB34F43430347034B33432
:10082800FB3447349734EC344634A6340B347634EE
:10083800E7346034DF346634F5348D342D34D734FE
:100848008C344B341534EB34CE34BF34BE34CC3412
:10085800EA3419345A34AE34173495342934D6343A
:100868009C347D347B349734D4343234B4345C349F
:100878002D3429345234AC343834FA34F6342E3426
:10088800A73463346834B8345A345234A4345734EF
:100898007034F43401340234023402340234023441
:1008A8000234023403340334033403340334043489
:1008B8000434043404340534053405340634063469
:1008C80007340734073408340834093409340A343F
:1008D8000B340B340C340D340E340E340F34103406
:1008E80011341234133415341634173419341A34B5
:1008F8001C341D341F3421342334253427342A343E
:100908002C342F343234353438343B343F34423489
:1009180046344B344F34543459345E3464346A3476
:10092800703477347E3485348531352584318B179E
:100938000B1796302000AA000030AB000C30DB000B
:100948005B08DD00DC018531BC2584312000DB003B
:100958005B08DE0061305E02031CA72C7B305E0260
:100968000318A72C0130DB005B08DC075E089F3EFC
:10097800DB005B08DD0016305D02031CC72C163057
:10098800DB005B08DD005D08423E86008701010848
:10099800DB005B08D8005C0801398431D524843138
:1009A800A72C2000DA005A08031DF32C58084E3EE5
:1009B800840084300318013E85000008D9005908D6
:1009C800C0005808043E840084300318013E8500A6
:1009D8000008D9005908BF00F401F30108005808BD
:1009E8004E3E840084300318013E85000008D9007B
:1009F8005908BA005808043E840084300318013EA0
:100A080085000008D9005908B900F101BB010800A8
:100A180022008C018E01373021008C0025308E0099
:100A2800213023008E0017308C0024008C018E01A9
:100A38002100951725008C018E013D002108E03921
:100A48001438A1003C002408E0391238A4003D0005
:100A58002408E0390838A4002308E0390938A3003D
:100A6800080085310C2585318531B12585318531E1
:100A7800E025853185314D25853185317B258531C9
:100A88008531A62585318531C625853185318E2567
:100A9800080088302D0097000130980040309900F8
:100AA80040309A0040309B0040309C0003309F004B
:100AB800950196019301940191019201803097006C
:100AC80008000F3411341434163418341B341D3410
:100AD800203422342434273429342C342E3430342E
:100AE8003334353438343A343C343F344134FF30CD
:100AF80028009600950120009210210092143730AA
:100B08002000D8000330D9008531DA2514302800B8
:100B180097000800083023009F0090309D000430A3
:100B28009E0040309B0003309C000800200092107B
:100B3800280829040319080029088A0028080A0037
:100B48008531080080302C0099007F309800C03033
:100B58009700CF3025009E050800703021009900CD
:100B68009A0198012200960121001A1B0800B82D4D
:100B78002000911EBC2D23009D1CC42D1D121D1686
:100B880019080800FF3020009B009A0191100430DA
:100B98009C000800FE0012001E00FE0BCF2D003442
:100BA800640080010131890BD52D003420005908DB
:100BB800A9005808A800080016302100970008006E
:020000040001F9
:04000E00E4FFFFFF0D
:00000001FF
