:04000000803118280B
:100008007E14803120007F08FB000B1F132821007D
:10001800921C13282000921C1328863185267B0801
:100028002000FF007E10090080311A28BB308400B0
:10003800863085005E3086000030870008308631C3
:10004800CB268031F001F101F201F301F401F50151
:10005800203084000030850031308631D1267E1072
:1000680020008431042C00340034023400340A3473
:10007800003416340034283400343E340034593403
:1000880000347A3400349F340034C9340034F734EF
:1000980000342B34013463340134A1340134E334A3
:1000A80001342934023474340234C4340234193427
:1000B800033471340334CF34033430340434963485
:1000C8000434013405346F340534E23405345834CB
:1000D8000634D334063452340734D43407345A340B
:1000E8000834E43408347134093402340A34963458
:1000F8000A342E340B34C9340B3467340C340834C6
:100108000D34AC340D3453340E34FD340E34A9346C
:100118000F345834103409341134BD341134723466
:1001280012342A341334E4341334A03414345D34D0
:1001380015341D341634DD3416349F3417346334C3
:10014800183427341934ED341934B4341A347B3460
:100158001B3443341C340C341D34D5341D349F34C3
:100168001E3469341F3432342034FC342034C6340D
:1001780021348F3422345834233421342434E9345C
:100188002434B0342534763426343B342734FF34D1
:100198002734C23428348334293443342A3402348B
:1001A8002B34BE342B3479342C3432342D34E934A6
:1001B8002D349E342E3450342F3400343034AE3441
:1001C80030345934313401343234A6343234493479
:1001D8003334E8343334853434341E343534B43469
:1001E800353447343634D634363462343734E93427
:1001F80037346E343834EE3438346B343934E334CD
:10020800393458343A34C9343A3435343B349D346B
:100218003B3401343C3460343C34BC343C34123418
:100228003D3464343D34B2343D34FB343D343F34E2
:100238003E347F343E34B9343E34EF343E342134D6
:100248003F344D343F3475343F3497343F34B534FC
:100258003F34CE343F34E2343F34F0343F34FA3460
:100268003F34FF343F34FF343F34FA343F34F03402
:100278003F34E2343F34CE343F34B5343F349734DE
:100288003F3475343F344D343F3421343F34EF34F8
:100298003E34B9343E347F343E343F343E34FB344C
:1002A8003D34B2343D3464343D3412343D34BC34CE
:1002B8003C3460343C3401343C349D343B34353474
:1002C8003B34C9343A3458343A34E33439346B342F
:1002D8003934EE3438346E343834E93437346234EF
:1002E8003734D634363447343634B43435341E349F
:1002F800353485343434E834333449343334A6342B
:1003080032340134323459343134AE343034003478
:10031800303450342F349E342E34E9342D34323472
:100328002D3479342C34BE342B3402342B344334FA
:100338002A3483342934C2342834FF3427343B34F4
:10034800273476342634B0342534E934243421343F
:100358002434583423348F342234C6342134FC34C2
:1003680020343234203469341F349F341E34D53459
:100378001D340C341D3443341C347B341B34B434E6
:100388001A34ED34193427341934633418349F344B
:100398001734DD3416341D3416345D341534A03466
:1003A8001434E43413342A34133472341234BD341C
:1003B80011340934113458341034A9340F34FD344D
:1003C8000E3453340E34AC340D3408340D346734E1
:1003D8000C34C9340B342E340B3496340A340234BA
:1003E8000A3471340934E43408345A340834D434BF
:1003F800073452340734D334063458340634E234DC
:1004080005346F34053401340534963404343034FB
:100418000434CF3403347134033419340334C4340A
:1004280002347434023429340234E3340134A134FC
:100438000134633401342B340134F7340034C934C3
:1004480000349F3400347A340034593400343E3454
:10045800003428340034163400340A3400340234AA
:10046800003400340034003406340C3412341834A8
:100478001D34223426342B342F34333437343A3471
:100488003E344134443447344A344D344F34513483
:100498005434563458345A345C345E345F346134DE
:1004A8006234643465346634683469346A346B346D
:1004B8006C346D346E346F346F347034713472341C
:1004C80072347334743474347534753476347634E1
:1004D80077347734773478347834793479347934B4
:1004E80079347A347A347A347A347B347B347B3492
:1004F8007B347B347C347C347C347C347C347C3476
:100508007D347D347D347D347D347D347D347D345B
:100518007D347D347E347E347E347E347E347E3445
:100528007E347E347E347E347E347E347E347E3433
:100538007E347E347E347E347E347E347E347F3422
:100548007F347F347F347F347F347F347F347F340B
:100558007F347F347F347F347F347F347F347F34FB
:100568007F347F347F347F347F347F347F347F34EB
:100578007F347F347F347F347F347F347F347F34DB
:100588007F347F347F347F347F347F347F347F34CB
:100598007F347F347F347F347F347F347F347F34BB
:1005A8007F347F347F347F347F347F347F347F34AB
:1005B8007F347F347F347F347F347F347F347F349B
:1005C8007F347F347F347F347F347F347F347F348B
:1005D8007F347F347F347F347F347F347F347F347B
:1005E8007F347F347F347F347F347F347F347F346B
:1005F8007F347F347F347F347F347F347F347F345B
:100608007F347F347F347F347F347F347F347F344A
:100618007F347F347F347F347F347F347F347F343A
:100628007F347F347F347F347F347F347F347F342A
:100638007F347F347F347F347F347F347F347F341A
:100648007F347F347F347F347F347F347F347F340A
:100658007F347F347F347F347F347F347F347F34FA
:100668007F347F348034FF30F6007608F307730850
:10067800031D4A2B740A03194A2B0130F600760829
:10068800F40720003408F6007608F30020004F082D
:10069800F6007608CD074E08F600F7017608BE0783
:1006A8007708BF3D3F08F6007608FA004D087A073C
:1006B800F6007608F2007408373E8400823003188A
:1006C800013E85000008F6007608FA0072087A07ED
:1006D800F6007608F5007508F600F701F635F70D0F
:1006E8003730760784008030773D8500003FC000B2
:1006F800013FC1007208F600F701F635F70D3730F3
:10070800760784008030773D8500003FF800013F80
:10071800F90040087807AC004108793DAD00AE010A
:10072800AF010830AF36AE0CAD0CAC0C890B962B74
:10073800FF30F6007608CA074A08031DAE2B710A77
:100748000319AE2B0130F6007608F1073408F600DD
:100758007608CA004908F6007608C7074808F60070
:10076800F7017608BA077708BB3D3B08F60076081C
:10077800FA0047087A07F6007608F0007108373E55
:10078800840082300318013E85000008F6007608D0
:10079800FA0070087A07F6007608CC004C08F600D4
:1007A800F701F635F70D3730760784008030773D4E
:1007B8008500003FBC00013FBD007008F600F7014E
:1007C800F635F70D3730760784008030773D8500A1
:1007D800003FF800013FF9003C087807A8003D08F1
:1007E800793DA900AA01AB010830AB36AA0CA90CC7
:1007F800A80C890BF92B2C0828072C009800080056
:1008080086313D2684318B170B1732302000B40017
:100818000030B500DC010030D4000030D3000030D7
:10082800D2000030D1008531D92584310030200034
:100838000E180130C6005D0846060319492C3430ED
:100848002000DB00F130890B272CDB0B272C003232
:10085800003020000E180130C6005D084606031956
:100868004A2C5C08031D4A2CDC01DC0A4508031DE0
:100878004A2CC501C50AC4010030A7000030A600F3
:100888000030A5000030A4004A2CDC014608DB003B
:100898005B08DD00300831040319562C0130B00222
:1008A8000030B13B3108D2003008D1008631212612
:1008B8008431003200320032003220004503031D2B
:1008C8008D2C0030D4000030D3000030D200FA3034
:1008D800D1002708D8002608D7002508D600240804
:1008E800D50085312F258431200054085304520443
:1008F8005104031D872C8531A9258431013020003E
:10090800DB005B08C40703304402031C912CC501BB
:10091800912CF0300032890B8E2C01302000A40776
:100928000030A53D0030A63D0030A73D1A2CFD340F
:100938000C341C342D343F34523466347B349234B6
:10094800AA34C334DE34FA34183438345A347E3492
:10095800A434CC34F634233453348634BB34F434DE
:1009680030347034B334FB3447349734EC34463481
:10097800A6340B347634E7346034DF346634F53427
:100988008D342D34D7348C344B341534EB34CE3489
:10099800BF34BE34CC34EA3419345A34AE34173444
:1009A80095342934D6349C347D347B349734D4340C
:1009B8003234B4345C342D3429345234AC343834C1
:1009C800FA3400340134013401340134013401347F
:1009D8000134013401340134013401340234023465
:1009E800023402340234023402340334033403344C
:1009F800033403340434043404340434053405342F
:100A08000534063406340734073407340834083408
:100A1800093409340A340B340B340C340D340E34D5
:100A28000E340F3410341134123413341534163490
:100A3800173419341A341C341D341F342134233428
:100A4800253427342A342C342F343234353438348E
:100A58003B343F34423420005408530452045104B8
:100A68000319692DDA01DA0AD41B462D0130D13574
:100A7800D20DD30DD40D890B3B2D0130D900590867
:100A8800DA07382D54085802031D542D530857020D
:100A9800031D542D52085602031D542D51085502AA
:100AA800031C5E2D5108D5025208D63B5308D73B8C
:100AB8005408D83B0130D436D30CD20CD10C890B56
:100AC8005F2D0130DA02031D462D5808D40057085F
:100AD800D3005608D2005508D10008002000D300E2
:100AE8005308031D902D5108E53E840084300318F7
:100AF800013E85000008D2005208CF0051089B3EF5
:100B0800840084300318013E85000008D200520892
:100B1800CE00F401F30108005108E53E840084305A
:100B28000318013E85000008D2005208C900510888
:100B38009B3E840084300318013E85000008D200E3
:100B48005208C800F101CA01080007302000D4008B
:100B58005408D5000130B6070030B73D6508D40009
:100B68005408C20755084202031CC12D5508D40079
:100B78005408C200E501E503C72D4208031DC72D2F
:100B8800C201E501E50A42085E3E860087010108C8
:100B9800D4005408D1003608013985317225FF3058
:100BA8002000B0000330B1000800200054085304AE
:100BB80052045104031DF62D21009D149D18E22DA9
:100BC8001C082000D60021001B082000D50055086D
:100BD80056040319E02D5508A0005608A100A201EB
:100BE800A30108005408A3005308A2005208A1005A
:100BF8005108A000080022008C018E013730210026
:100C08008C0023308E0023008E018C0124008C017F
:100C180001308E002100951325008C018E013D00C6
:100C28002408E0390838A4002308E0390938A3006B
:100C38002208E0390C38A200080020005208D4002D
:100C48005108D300D436D30CD436D30C530825001E
:100C58009100200051080339D3000430D335890BA3
:100C6800322E25001308CF392000530425009300A5
:100C780008008531FF25863186319C2686318631EC
:100C8800DD2686318631912686318631A726863142
:100C98008631582686318631722686318631B126CC
:100CA80086318631C32608002D009701013098004F
:100CB8004030990040309A0040309B0040309C0002
:100CC80014309D009E010F309F00950196019301FD
:100CD800940191019201883097000800FF302800A4
:100CE80096009501200092102100921437302000C0
:100CF800D1000330D2008631D7260C302800970067
:100D08000800200092103208330403190800330841
:100D18008A0032080A00863108003C30250093001A
:100D28007F30910092011E08FC3902389E000800AD
:100D38007030210099009A01980122009601210043
:100D48001A1B0800A32EFF3028009D009C012000DC
:100D58001211043028009E00080080302C009900F1
:100D6800403098009701CF3025009E0508003834A0
:100D78003A343C343F344134443446340134FF304F
:100D880020009B009A01911004309C000800FE008E
:100D980012001E00FE0BCC2E0034640080010131CD
:100DA800890BD22E003420005208B3005108B2003B
:0A0DB8000800163021009700080023
:020000040001F9
:04000E00A4FFFFDF6D
:00000001FF
