:04000000803118280B
:100008007E14803120007F08FB000B1F132821007D
:10001800921C13282000921C13288F31D0277B08AC
:100028002000FF007E10090080311A28B9308400B2
:1000380087308500A03086000030870019308F3166
:10004800A2278031F001F101F201F301F401F50179
:10005800493084000030850026308F319C277E107F
:10006800200085318C2D00340034023400340A34E9
:10007800003416340034283400343E340034593403
:1000880000347A3400349F340034C9340034F734EF
:1000980000342B34013463340134A1340134E334A3
:1000A80001342934023474340234C4340234193427
:1000B800033471340334CF34033430340434963485
:1000C8000434013405346F340534E23405345834CB
:1000D8000634D334063452340734D43407345A340B
:1000E8000834E43408347134093402340A34963458
:1000F8000A342E340B34C9340B3467340C340834C6
:100108000D34AC340D3453340E34FD340E34A9346C
:100118000F345834103409341134BD341134723466
:1001280012342A341334E4341334A03414345D34D0
:1001380015341D341634DD3416349F3417346334C3
:10014800183427341934ED341934B4341A347B3460
:100158001B3443341C340C341D34D5341D349F34C3
:100168001E3469341F3432342034FC342034C6340D
:1001780021348F3422345834233421342434E9345C
:100188002434B0342534763426343B342734FF34D1
:100198002734C23428348334293443342A3402348B
:1001A8002B34BE342B3479342C3432342D34E934A6
:1001B8002D349E342E3450342F3400343034AE3441
:1001C80030345934313401343234A6343234493479
:1001D8003334E8343334853434341E343534B43469
:1001E800353447343634D634363462343734E93427
:1001F80037346E343834EE3438346B343934E334CD
:10020800393458343A34C9343A3435343B349D346B
:100218003B3401343C3460343C34BC343C34123418
:100228003D3464343D34B2343D34FB343D343F34E2
:100238003E347F343E34B9343E34EF343E342134D6
:100248003F344D343F3475343F3497343F34B534FC
:100258003F34CE343F34E2343F34F0343F34FA3460
:100268003F34FF343F34FF343F34FA343F34F03402
:100278003F34E2343F34CE343F34B5343F349734DE
:100288003F3475343F344D343F3421343F34EF34F8
:100298003E34B9343E347F343E343F343E34FB344C
:1002A8003D34B2343D3464343D3412343D34BC34CE
:1002B8003C3460343C3401343C349D343B34353474
:1002C8003B34C9343A3458343A34E33439346B342F
:1002D8003934EE3438346E343834E93437346234EF
:1002E8003734D634363447343634B43435341E349F
:1002F800353485343434E834333449343334A6342B
:1003080032340134323459343134AE343034003478
:10031800303450342F349E342E34E9342D34323472
:100328002D3479342C34BE342B3402342B344334FA
:100338002A3483342934C2342834FF3427343B34F4
:10034800273476342634B0342534E934243421343F
:100358002434583423348F342234C6342134FC34C2
:1003680020343234203469341F349F341E34D53459
:100378001D340C341D3443341C347B341B34B434E6
:100388001A34ED34193427341934633418349F344B
:100398001734DD3416341D3416345D341534A03466
:1003A8001434E43413342A34133472341234BD341C
:1003B80011340934113458341034A9340F34FD344D
:1003C8000E3453340E34AC340D3408340D346734E1
:1003D8000C34C9340B342E340B3496340A340234BA
:1003E8000A3471340934E43408345A340834D434BF
:1003F800073452340734D334063458340634E234DC
:1004080005346F34053401340534963404343034FB
:100418000434CF3403347134033419340334C4340A
:1004280002347434023429340234E3340134A134FC
:100438000134633401342B340134F7340034C934C3
:1004480000349F3400347A340034593400343E3454
:10045800003428340034163400340A3400340234AA
:1004680000340034003400340234033405340634D4
:10047800083409340A340C340D340E341034113471
:100488001234133414341534163417341834193418
:100498001A341B341C341D341E341F3420342134C8
:1004A8002134223423342434243425342634263485
:1004B800273428342834293429342A342A342B344C
:1004C8002C342C342D342D342D342E342E342F341A
:1004D8002F343034303430343134313432343234EF
:1004E80032343334333433343434343434343534C8
:1004F80035343534353436343634363436343734A6
:100508003734373437343834383438343834383486
:100518003934393439343934393439343A343A3469
:100528003A343A343A343A343B343B343B343B344F
:100538003B343B343B343B343C343C343C343C3437
:100548003C343C343C343C343C343C343D343D3421
:100558003D343D343D343D343D343D343D343D340B
:100568003D343D343D343D343E343E343E343E34F7
:100578003E343E343E343E343E343E343E343E34E3
:100588003E343E343E343E343E343E343E343E34D3
:100598003F343F343F343F343F343F343F343F34BB
:1005A8003F343F343F343F343F343F343F343F34AB
:1005B8003F343F343F343F343F343F343F343F349B
:1005C8003F343F343F343F343F343F343F343F348B
:1005D8003F343F343F343F343F343F343F343F347B
:1005E8003F343F343F344034403440344034403466
:1005F8004034403440344034403440344034403453
:100608004034403440344034403440344034403442
:100618004034403440344034403440344034403432
:100628004034403440344034403440344034403422
:100638004034403440344034403440344034403412
:100648004034403440344034403440344034403402
:1006580040344034403440344034403440344034F2
:10066800403440344034003406340C3412341834E6
:100678001D34223426342B342F34333437343A346F
:100688003E344134443447344A344D344F34513481
:100698005434563458345A345C345E345F346134DC
:1006A8006234643465346634683469346A346B346B
:1006B8006C346D346E346F346F347034713472341A
:1006C80072347334743474347534753476347634DF
:1006D80077347734773478347834793479347934B2
:1006E80079347A347A347A347A347B347B347B3490
:1006F8007B347B347C347C347C347C347C347C3474
:100708007D347D347D347D347D347D347D347D3459
:100718007D347D347E347E347E347E347E347E3443
:100728007E347E347E347E347E347E347E347E3431
:100738007E347E347E347E347E347E347E347F3420
:100748007F347F347F347F347F347F347F347F3409
:100758007F347F347F347F347F347F347F347F34F9
:100768007F347F347F347F347F347F347F347F34E9
:100778007F347F347F347F347F347F347F347F34D9
:100788007F347F347F347F347F347F347F347F34C9
:100798007F347F347F347F347F347F347F347F34B9
:1007A8007F347F347F347F347F347F347F347F34A9
:1007B8007F347F347F347F347F347F347F347F3499
:1007C8007F347F347F347F347F347F347F347F3489
:1007D8007F347F347F347F347F347F347F347F3479
:1007E8007F347F347F347F347F347F347F347F3469
:1007F8007F347F347F347F347F347F347F347F3459
:100808007F347F347F347F347F347F347F347F3448
:100818007F347F347F347F347F347F347F347F3438
:100828007F347F347F347F347F347F347F347F3428
:100838007F347F347F347F347F347F347F347F3418
:100848007F347F347F347F347F347F347F347F3408
:100858007F347F347F347F347F347F347F347F34F8
:100868007F347F348034FF30F6007608F30773084E
:10087800031D4A2C740A03194A2C0130F600760825
:10088800F40720005708F6007608F30020006D08EA
:10089800F6007608EB076C08F600F7017608E10722
:1008A8007708E23D6208F6007608FA006B087A07D6
:1008B800F6007608F2007408373E84008330031887
:1008C800013E85000008F6007608FA0072087A07EB
:1008D800F6007608F5007508F600F701F635F70D0D
:1008E8003730760784008030773D8500003FE3008D
:1008F800013FE4007208F600F701F635F70D3730CE
:10090800760784008030773D8500003FF800013F7E
:10091800F90063087807D1006408793DD200D30153
:10092800D4010830D436D30CD20CD10C890B962CB8
:10093800FF30F6007608E8076808031DAE2C710A38
:100948000319AE2C0130F6007608F1075708F600B7
:100958007608E8006708F6007608E5076608F600F6
:10096800F7017608DD077708DE3D5E08F6007608B1
:10097800FA0065087A07F6007608F0007108373E35
:10098800840083300318013E85000008F6007608CD
:10099800FA0070087A07F6007608EA006A08F60096
:1009A800F701F635F70D3730760784008030773D4C
:1009B8008500003FDF00013FE0007008F600F70106
:1009C800F635F70D3730760784008030773D85009F
:1009D800003FF800013FF9005F087807CD00600884
:1009E800793DCE00CF01D0010830D036CF0CCE0CE7
:1009F800CD0C890BF92C51084D072C0098000800E4
:100A080020004C08A3004B08A2004A08A10049088E
:100A1800A0004130A700C630A6004E30A5006D30BA
:100A2800A40087313A278531393020002007C900D2
:100A38003030213DCA000030223DCB000030233D3C
:100A4800CC004908B4004A08B5004B08B6004C0869
:100A5800B7001030B800B737B60CB50CB40CB80BEB
:100A68002F2DFF303405C0007F303505C100003020
:100A78003605C20000303705C3003008B40031081D
:100A8800B5003208B6003308B7002C09B8002D09A4
:100A9800B9002E09BA002F09BB00B80A0319B90A10
:100AA8000319BA0A0319BB0A3808B4073908B53D4F
:100AB8003A08B63D3B08B73D01303407A000003086
:100AC800353DA1000030363DA2000030373DA3007F
:100AD8004308A7004208A6004108A5004008A40052
:100AE80086310126200020082C07BC0021082D3D56
:100AF800BD0022082E3DBE0023082F3DBF003F0841
:100B0800AF003E08AE003D08AD003C08AC00080050
:100B18008731D22785318B170B171E302000D7005D
:100B28000030D800C701C501C6010030A30000305D
:100B3800A2000030A1000030A00087319327853142
:100B4800EF2D7B3048020318FA2D4608031DDF2DD0
:100B5800C601C60A0130C4004408C5070030AF000A
:100B68000030AE000030AD000030AC000030B30003
:100B78000030B2000030B1001830B00085310425D3
:100B8800853120002C08C4004408C70019304702EA
:100B9800031CD22D1830C4004408C7004708A03EE3
:100BA800860087010108C4004408A00045080139EF
:100BB800873103278531C8302000D7000030D8009E
:100BC80000305802C93003195702031CEF2DC830F2
:100BD800D7000030D8008F31B02785312000C400FD
:100BE8004408C800613048020318A52D3030480673
:100BF800031DEF2DC6013230EC2D2000AA01A71FDE
:100C0800122EA409A509A609A709A40A0319A50A69
:100C18000319A60A0319A70AAA01AA0AA31F1F2EC5
:100C2800A009A109A209A309A00A0319A10A031985
:100C3800A20A0319A30A2308220421042004031981
:100C4800582EA901A90AA31B352E0130A035A10DE4
:100C5800A20DA30D890B2A2E0130A8002808A90788
:100C6800272E23082702031D432E22082602031DD0
:100C7800432E21082502031D432E20082402031CAD
:100C88004D2E2008A4022108A53B2208A63B2308D4
:100C9800A73B0130A336A20CA10CA00C890B4E2E49
:100CA8000130A902031D352E2A080319662EA4094E
:100CB800A509A609A709A40A0319A50A0319A60ADA
:100CC8000319A70A2708A3002608A2002508A100DF
:100CD8002408A0000800FD340C341C342D343F34A3
:100CE800523466347B349234AA34C334DE34FA3452
:100CF800183438345A347E34A434CC34F63423349B
:100D080053348634BB34F43430347034B334FB3465
:100D180047349734EC344634A6340B347634E7340D
:100D28006034DF346634F5348D342D34D7348C3464
:100D38004B341534EB34CE34BF34BE34CC34EA34BF
:100D480019345A34AE34173495342934D6349C3493
:100D58007D347B349734D4343234B4345C342D3419
:100D680029345234AC343834FA3400340134013480
:100D780001340134013401340134013401340134C3
:100D880001340134023402340234023402340234AD
:100D98000234033403340334033403340434043492
:100DA8000434043405340534053406340634073471
:100DB8000734073408340834093409340A340B3446
:100DC8000B340C340D340E340E340F34103411340B
:100DD8001234133415341634173419341A341C34B5
:100DE8001D341F3421342334253427342A342C3439
:100DF8002F343234353438343B343F3442342000D5
:100E0800A2002208031D212F2008B93E8400863045
:100E18000318013E85000008A1002108ED00200804
:100E28006F3E840086300318013E85000008A1004B
:100E38002108EC00F401F30108002008B93E840001
:100E480086300318013E85000008A1002108E7004C
:100E580020086F3E840086300318013E8500000894
:100E6800A1002108E600F101E80108000030200097
:100E7800AB000030AA000030A9000030A800201CF8
:100E88004D2F2408A8072508A93D2608AA3D2708AC
:100E9800AB3D0130A435A50DA60DA70D890B4E2F2E
:100EA8000130A336A20CA10CA00C890B552F2308E6
:100EB800220421042004031D432F2B08A3002A0821
:100EC800A2002908A1002808A000080022008C011F
:100ED8008E01373021008C0025308E002130230010
:100EE8008E0017308C0024008C018E01210095178C
:100EF80025008C018E013D002108E0391438A1003D
:100F08003C002408E0391238A4003D002408E039E8
:100F18000838A4002308E0390938A3000800200095
:100F28002308220421042004031DB02F21009D144E
:100F38009D189C2F1C082000A50021001B082000DC
:100F4800A4002408250403199A2F2408C900250899
:100F5800CA00CB01CC0108002308CC002208CB0032
:100F68002108CA002008C90008000E3410341334C0
:100F7800153417341A341C341F34213423342634DE
:100F880028342B342D342F34323434343734393434
:100F98003B343E34403443344534473487316A2740
:100FA80087318F31BA2787318F31922787318F3137
:100FB800E82787318731EA2787318F31C52787317D
:100FC8008F31A82787318F31DC270800FF302800B0
:100FD80096009501200092102100921437302000CD
:100FE800A0000430A1008F3196270C30280097000C
:020FF8000800EF
:101F2400163021009700080020002108D600200860
:101F3400D5000800640080010131890B9D2F003415
:101F4400FE0012001E00FE0BA32F0034FF30200001
:101F54009B009A01911004309C0008002000911EFF
:101F6400B02F23009D1CB82F1D121D161908080040
:101F74007030210099009A019801220096012100F5
:101F84001A1B0800C12F80302C0099007F30980064
:101F9400C0309700CF3025009E0508002000921025
:101FA400550856040319080056088A0055080A0003
:101FB4008F310800083023009F0090309D000430CA
:101FC4009E0040309B0003309C00080088302D00A8
:101FD4009700013098004030990040309A0040301A
:101FE4009B0040309C0003309F00950196019301B3
:0C1FF400940191019201803097000800D8
:020000040001F9
:04000E00E4FFFFFF0D
:00000001FF
