:04000000803118280B
:100008007E14803120007F08FB000B1F132821007D
:10001800921C13282000921C132885319A257B08EE
:100028002000FF007E10090080311A286530840006
:1000380085308500423086000030870016308531D3
:10004800CE258031F001F101F201F301F401F5014F
:10005800203084000030850022308531D4257E1080
:1000680020008431982C00340034023400340A34DF
:10007800003416340034283400343E340034593403
:1000880000347A3400349F340034C9340034F734EF
:1000980000342B34013463340134A1340134E334A3
:1000A80001342934023474340234C4340234193427
:1000B800033471340334CF34033430340434963485
:1000C8000434013405346F340534E23405345834CB
:1000D8000634D334063452340734D43407345A340B
:1000E8000834E43408347134093402340A34963458
:1000F8000A342E340B34C9340B3467340C340834C6
:100108000D34AC340D3453340E34FD340E34A9346C
:100118000F345834103409341134BD341134723466
:1001280012342A341334E4341334A03414345D34D0
:1001380015341D341634DD3416349F3417346334C3
:10014800183427341934ED341934B4341A347B3460
:100158001B3443341C340C341D34D5341D349F34C3
:100168001E3469341F3432342034FC342034C6340D
:1001780021348F3422345834233421342434E9345C
:100188002434B0342534763426343B342734FF34D1
:100198002734C23428348334293443342A3402348B
:1001A8002B34BE342B3479342C3432342D34E934A6
:1001B8002D349E342E3450342F3400343034AE3441
:1001C80030345934313401343234A6343234493479
:1001D8003334E8343334853434341E343534B43469
:1001E800353447343634D634363462343734E93427
:1001F80037346E343834EE3438346B343934E334CD
:10020800393458343A34C9343A3435343B349D346B
:100218003B3401343C3460343C34BC343C34123418
:100228003D3464343D34B2343D34FB343D343F34E2
:100238003E347F343E34B9343E34EF343E342134D6
:100248003F344D343F3475343F3497343F34B534FC
:100258003F34CE343F34E2343F34F0343F34FA3460
:100268003F34FF343F34FF343F34FA343F34F03402
:100278003F34E2343F34CE343F34B5343F349734DE
:100288003F3475343F344D343F3421343F34EF34F8
:100298003E34B9343E347F343E343F343E34FB344C
:1002A8003D34B2343D3464343D3412343D34BC34CE
:1002B8003C3460343C3401343C349D343B34353474
:1002C8003B34C9343A3458343A34E33439346B342F
:1002D8003934EE3438346E343834E93437346234EF
:1002E8003734D634363447343634B43435341E349F
:1002F800353485343434E834333449343334A6342B
:1003080032340134323459343134AE343034003478
:10031800303450342F349E342E34E9342D34323472
:100328002D3479342C34BE342B3402342B344334FA
:100338002A3483342934C2342834FF3427343B34F4
:10034800273476342634B0342534E934243421343F
:100358002434583423348F342234C6342134FC34C2
:1003680020343234203469341F349F341E34D53459
:100378001D340C341D3443341C347B341B34B434E6
:100388001A34ED34193427341934633418349F344B
:100398001734DD3416341D3416345D341534A03466
:1003A8001434E43413342A34133472341234BD341C
:1003B80011340934113458341034A9340F34FD344D
:1003C8000E3453340E34AC340D3408340D346734E1
:1003D8000C34C9340B342E340B3496340A340234BA
:1003E8000A3471340934E43408345A340834D434BF
:1003F800073452340734D334063458340634E234DC
:1004080005346F34053401340534963404343034FB
:100418000434CF3403347134033419340334C4340A
:1004280002347434023429340234E3340134A134FC
:100438000134633401342B340134F7340034C934C3
:1004480000349F3400347A340034593400343E3454
:10045800003428340034163400340A3400340234AA
:10046800003400340034003406340C3412341834A8
:100478001D34223426342B342F34333437343A3471
:100488003E344134443447344A344D344F34513483
:100498005434563458345A345C345E345F346134DE
:1004A8006234643465346634683469346A346B346D
:1004B8006C346D346E346F346F347034713472341C
:1004C80072347334743474347534753476347634E1
:1004D80077347734773478347834793479347934B4
:1004E80079347A347A347A347A347B347B347B3492
:1004F8007B347B347C347C347C347C347C347C3476
:100508007D347D347D347D347D347D347D347D345B
:100518007D347D347E347E347E347E347E347E3445
:100528007E347E347E347E347E347E347E347E3433
:100538007E347E347E347E347E347E347E347F3422
:100548007F347F347F347F347F347F347F347F340B
:100558007F347F347F347F347F347F347F347F34FB
:100568007F347F347F347F347F347F347F347F34EB
:100578007F347F347F347F347F347F347F347F34DB
:100588007F347F347F347F347F347F347F347F34CB
:100598007F347F347F347F347F347F347F347F34BB
:1005A8007F347F347F347F347F347F347F347F34AB
:1005B8007F347F347F347F347F347F347F347F349B
:1005C8007F347F347F347F347F347F347F347F348B
:1005D8007F347F347F347F347F347F347F347F347B
:1005E8007F347F347F347F347F347F347F347F346B
:1005F8007F347F347F347F347F347F347F347F345B
:100608007F347F347F347F347F347F347F347F344A
:100618007F347F347F347F347F347F347F347F343A
:100628007F347F347F347F347F347F347F347F342A
:100638007F347F347F347F347F347F347F347F341A
:100648007F347F347F347F347F347F347F347F340A
:100658007F347F347F347F347F347F347F347F34FA
:100668007F347F348034FF30F6007608F307730850
:10067800031D4A2B740A03194A2B0130F600760829
:10068800F40720002A08F6007608F3002000400846
:10069800F6007608BE073F08F600F7017608B407AB
:1006A8007708B53D3508F6007608FA003E087A075F
:1006B800F6007608F2007408373E8400823003188A
:1006C800013E85000008F6007608FA0072087A07ED
:1006D800F6007608F5007508F600F701F635F70D0F
:1006E8003730760784008030773D8500003FB600BC
:1006F800013FB7007208F600F701F635F70D3730FD
:10070800760784008030773D8500003FF800013F80
:10071800F90036087807A4003708793DA500A60136
:10072800A7010830A736A60CA50CA40C890B962B9C
:10073800FF30F6007608BB073B08031DAE2B710A95
:100748000319AE2B0130F6007608F1072A08F600E7
:100758007608BB003A08F6007608B8073908F600AC
:10076800F7017608B0077708B13D3108F60076083A
:10077800FA0038087A07F6007608F0007108373E64
:10078800840082300318013E85000008F6007608D0
:10079800FA0070087A07F6007608BD003D08F600F2
:1007A800F701F635F70D3730760784008030773D4E
:1007B8008500003FB200013FB3007008F600F70162
:1007C800F635F70D3730760784008030773D8500A1
:1007D800003FF800013FF90032087807A00033080D
:1007E800793DA100A201A3010830A336A20CA10CF7
:1007F800A00C890BF92B240820072C00980008006E
:10080800FA34183438345A347E34A434CC34F634B8
:10081800233453348634BB34F43430347034B33432
:10082800FB3447349734EC344634A6340B347634EE
:10083800E7346034DF346634F5348D342D34D734FE
:100848008C344B341534EB34CE34BF34BE34CC3412
:10085800EA3419345A34AE34173495342934D6343A
:100868009C347D347B349734D4343234B4345C349F
:100878002D3429345234AC343834FA34F6342E3426
:10088800A73463346834B8345A345234A4345734EF
:100898007034F43401340234023402340234023441
:1008A8000234023403340334033403340334043489
:1008B8000434043404340534053405340634063469
:1008C80007340734073408340834093409340A343F
:1008D8000B340B340C340D340E340E340F34103406
:1008E80011341234133415341634173419341A34B5
:1008F8001C341D341F3421342334253427342A343E
:100908002C342F343234353438343B343F34423489
:1009180046344B344F34543459345E3464346A3476
:10092800703477347E3485348531352584318B179E
:100938000B1796302000AA000030AB000C30DB000B
:100948005B08DD00DC018531BC2584312000DB003B
:100958005B08DE0061305E02031CA72C7B305E0260
:100968000318A72C0130DB005B08DC075E089F3EFC
:10097800DB005B08DD0016305D02031CC72C163057
:10098800DB005B08DD005D08423E86008701010848
:10099800DB005B08D8005C0801398431D524843138
:1009A800A72C2000DA005A08031DF32C58084E3EE5
:1009B800840084300318013E85000008D9005908D6
:1009C800C0005808043E840084300318013E8500A6
:1009D8000008D9005908BF00F401F30108005808BD
:1009E8004E3E840084300318013E85000008D9007B
:1009F8005908BA005808043E840084300318013EA0
:100A080085000008D9005908B900F101BB010800A8
:100A180022008C018E01373021008C0025308E0099
:100A2800213023008E0017308C0024008C018E01A9
:100A38002100951725008C018E013D002108E03921
:100A48001438A1003C002408E0391238A4003D0005
:100A58002408E0390838A4002308E0390938A3003D
:100A6800080085310C2585318531B12585318531E1
:100A7800E025853185314D25853185317B258531C9
:100A88008531A62585318531C625853185318E2567
:100A9800080088302D0097000130980040309900F8
:100AA80040309A0040309B0040309C0003309F004B
:100AB800950196019301940191019201803097006C
:100AC80008000F3411341434163418341B341D3410
:100AD800203422342434273429342C342E3430342E
:100AE8003334353438343A343C343F344134FF30CD
:100AF80028009600950120009210210092143730AA
:100B08002000D8000330D9008531DA250C302800C0
:100B180097000800083023009F0090309D000430A3
:100B28009E0040309B0003309C000800200092107B
:100B3800280829040319080029088A0028080A0037
:100B48008531080080302C0099007F309800C03033
:100B58009700CF3025009E050800703021009900CD
:100B68009A0198012200960121001A1B0800B82D4D
:100B78002000911EBC2D23009D1CC42D1D121D1686
:100B880019080800FF3020009B009A0191100430DA
:100B98009C000800FE0012001E00FE0BCF2D003442
:100BA800640080010131890BD52D003420005908DB
:100BB800A9005808A800080016302100970008006E
:020000040001F9
:04000E00E4FFFFFF0D
:00000001FF
